{
  "contractName": "Lottery",
  "abi": [
    {
      "inputs": [],
      "stateMutability": "nonpayable",
      "type": "constructor"
    },
    {
      "inputs": [
        {
          "internalType": "uint256",
          "name": "",
          "type": "uint256"
        }
      ],
      "name": "players",
      "outputs": [
        {
          "internalType": "address payable",
          "name": "",
          "type": "address"
        }
      ],
      "stateMutability": "view",
      "type": "function",
      "constant": true
    },
    {
      "inputs": [],
      "name": "winner",
      "outputs": [
        {
          "internalType": "address payable",
          "name": "",
          "type": "address"
        }
      ],
      "stateMutability": "view",
      "type": "function",
      "constant": true
    },
    {
      "stateMutability": "payable",
      "type": "receive",
      "payable": true
    },
    {
      "inputs": [],
      "name": "transfer",
      "outputs": [],
      "stateMutability": "payable",
      "type": "function",
      "payable": true
    },
    {
      "inputs": [],
      "name": "getBalance",
      "outputs": [
        {
          "internalType": "uint256",
          "name": "",
          "type": "uint256"
        }
      ],
      "stateMutability": "view",
      "type": "function",
      "constant": true
    },
    {
      "inputs": [],
      "name": "pickwinner",
      "outputs": [],
      "stateMutability": "nonpayable",
      "type": "function"
    },
    {
      "inputs": [],
      "name": "allPlayers",
      "outputs": [
        {
          "internalType": "address payable[]",
          "name": "",
          "type": "address[]"
        }
      ],
      "stateMutability": "view",
      "type": "function",
      "constant": true
    }
  ],
  "bytecode": "0x608060405234801561001057600080fd5b50336000806101000a81548173ffffffffffffffffffffffffffffffffffffffff021916908373ffffffffffffffffffffffffffffffffffffffff160217905550610d2c806100606000396000f3fe6080604052600436106100595760003560e01c806312065fe01461006557806371b80060146100905780638a4068dd146100a7578063b0ec8094146100b1578063dfbf53ae146100dc578063f71d96cb1461010757610060565b3661006057005b600080fd5b34801561007157600080fd5b5061007a610144565b60405161008791906107db565b60405180910390f35b34801561009c57600080fd5b506100a56101da565b005b6100af6104b1565b005b3480156100bd57600080fd5b506100c66105ee565b6040516100d391906108e6565b60405180910390f35b3480156100e857600080fd5b506100f161067c565b6040516100fe9190610917565b60405180910390f35b34801561011357600080fd5b5061012e60048036038101906101299190610963565b6106a2565b60405161013b9190610917565b60405180910390f35b60003373ffffffffffffffffffffffffffffffffffffffff1660008054906101000a900473ffffffffffffffffffffffffffffffffffffffff1673ffffffffffffffffffffffffffffffffffffffff16146101d4576040517f08c379a00000000000000000000000000000000000000000000000000000000081526004016101cb906109ed565b60405180910390fd5b47905090565b3373ffffffffffffffffffffffffffffffffffffffff1660008054906101000a900473ffffffffffffffffffffffffffffffffffffffff1673ffffffffffffffffffffffffffffffffffffffff1614610268576040517f08c379a000000000000000000000000000000000000000000000000000000000815260040161025f906109ed565b60405180910390fd5b600360018054905010156102b1576040517f08c379a00000000000000000000000000000000000000000000000000000000081526004016102a890610a59565b60405180910390fd5b60006102bb6106e1565b90506000600180549050826102d09190610aa8565b9050600181815481106102e6576102e5610ad9565b5b9060005260206000200160009054906101000a900473ffffffffffffffffffffffffffffffffffffffff16600260006101000a81548173ffffffffffffffffffffffffffffffffffffffff021916908373ffffffffffffffffffffffffffffffffffffffff160217905550600061035b610144565b90506000670de0b6b3a76400009050600081836103789190610b37565b9050600260009054906101000a900473ffffffffffffffffffffffffffffffffffffffff1673ffffffffffffffffffffffffffffffffffffffff166108fc829081150290604051600060405180830381858888f193505050501580156103e2573d6000803e3d6000fd5b5060008054906101000a900473ffffffffffffffffffffffffffffffffffffffff1673ffffffffffffffffffffffffffffffffffffffff166108fc839081150290604051600060405180830381858888f19350505050158015610449573d6000803e3d6000fd5b50600067ffffffffffffffff81111561046557610464610b6b565b5b6040519080825280602002602001820160405280156104935781602001602082028036833780820191505090505b50600190805190602001906104a992919061071b565b505050505050565b3373ffffffffffffffffffffffffffffffffffffffff1660008054906101000a900473ffffffffffffffffffffffffffffffffffffffff1673ffffffffffffffffffffffffffffffffffffffff160361053f576040517f08c379a000000000000000000000000000000000000000000000000000000000815260040161053690610c0c565b60405180910390fd5b670de0b6b3a76400003414610589576040517f08c379a000000000000000000000000000000000000000000000000000000000815260040161058090610c78565b60405180910390fd5b6001339080600181540180825580915050600190039060005260206000200160009091909190916101000a81548173ffffffffffffffffffffffffffffffffffffffff021916908373ffffffffffffffffffffffffffffffffffffffff160217905550565b6060600180548060200260200160405190810160405280929190818152602001828054801561067257602002820191906000526020600020905b8160009054906101000a900473ffffffffffffffffffffffffffffffffffffffff1673ffffffffffffffffffffffffffffffffffffffff1681526020019060010190808311610628575b5050505050905090565b600260009054906101000a900473ffffffffffffffffffffffffffffffffffffffff1681565b600181815481106106b257600080fd5b906000526020600020016000915054906101000a900473ffffffffffffffffffffffffffffffffffffffff1681565b600044426001805490506040516020016106fd93929190610cb9565b6040516020818303038152906040528051906020012060001c905090565b828054828255906000526020600020908101928215610794579160200282015b828111156107935782518260006101000a81548173ffffffffffffffffffffffffffffffffffffffff021916908373ffffffffffffffffffffffffffffffffffffffff1602179055509160200191906001019061073b565b5b5090506107a191906107a5565b5090565b5b808211156107be5760008160009055506001016107a6565b5090565b6000819050919050565b6107d5816107c2565b82525050565b60006020820190506107f060008301846107cc565b92915050565b600081519050919050565b600082825260208201905092915050565b6000819050602082019050919050565b600073ffffffffffffffffffffffffffffffffffffffff82169050919050565b600061084d82610822565b9050919050565b61085d81610842565b82525050565b600061086f8383610854565b60208301905092915050565b6000602082019050919050565b6000610893826107f6565b61089d8185610801565b93506108a883610812565b8060005b838110156108d95781516108c08882610863565b97506108cb8361087b565b9250506001810190506108ac565b5085935050505092915050565b600060208201905081810360008301526109008184610888565b905092915050565b61091181610842565b82525050565b600060208201905061092c6000830184610908565b92915050565b600080fd5b610940816107c2565b811461094b57600080fd5b50565b60008135905061095d81610937565b92915050565b60006020828403121561097957610978610932565b5b60006109878482850161094e565b91505092915050565b600082825260208201905092915050565b7f596f7520617265206e6f7420746865204d616e61676572000000000000000000600082015250565b60006109d7601783610990565b91506109e2826109a1565b602082019050919050565b60006020820190508181036000830152610a06816109ca565b9050919050565b7f506c617965727320617265206c657373207468616e2032000000000000000000600082015250565b6000610a43601783610990565b9150610a4e82610a0d565b602082019050919050565b60006020820190508181036000830152610a7281610a36565b9050919050565b7f4e487b7100000000000000000000000000000000000000000000000000000000600052601260045260246000fd5b6000610ab3826107c2565b9150610abe836107c2565b925082610ace57610acd610a79565b5b828206905092915050565b7f4e487b7100000000000000000000000000000000000000000000000000000000600052603260045260246000fd5b7f4e487b7100000000000000000000000000000000000000000000000000000000600052601160045260246000fd5b6000610b42826107c2565b9150610b4d836107c2565b9250828203905081811115610b6557610b64610b08565b5b92915050565b7f4e487b7100000000000000000000000000000000000000000000000000000000600052604160045260246000fd5b7f596f752063616e6e6f742073656e64204d6f6e6579206265636175736520596f60008201527f722061726520746865204d416e61676572000000000000000000000000000000602082015250565b6000610bf6603183610990565b9150610c0182610b9a565b604082019050919050565b60006020820190508181036000830152610c2581610be9565b9050919050565b7f506c65617365205061792031204574686572206f6e6c79000000000000000000600082015250565b6000610c62601783610990565b9150610c6d82610c2c565b602082019050919050565b60006020820190508181036000830152610c9181610c55565b9050919050565b6000819050919050565b610cb3610cae826107c2565b610c98565b82525050565b6000610cc58286610ca2565b602082019150610cd58285610ca2565b602082019150610ce58284610ca2565b60208201915081905094935050505056fea264697066735822122065c08a3b073436f1e50354965e1eb37aa9a607e182b75d5b79dc7d19a28f201d64736f6c63430008110033",
  "immutableReferences": {},
  "source": "//SPDX-License-Identifier: MIT\r\npragma solidity >=0.5.0 <0.9.0;\r\n\r\ncontract Lottery {\r\n    address manager;\r\n    address payable[] public players;\r\n    address payable public winner;\r\n\r\n    constructor() {\r\n        manager = msg.sender;\r\n    }\r\n\r\n    modifier onlyOwner() {\r\n        require(manager == msg.sender, \"You are not the Manager\");\r\n        _;\r\n    }\r\n\r\n    receive() external payable {}\r\n\r\n    function transfer() external payable {\r\n        require(\r\n            manager != msg.sender,\r\n            \"You cannot send Money because Yor are the MAnager\"\r\n        );\r\n        require(msg.value == 1 ether, \"Please Pay 1 Ether only\");\r\n        players.push(payable(msg.sender));\r\n    }\r\n\r\n    function getBalance() public view onlyOwner returns (uint256) {\r\n        return address(this).balance;\r\n    }\r\n\r\n    function random() internal view returns (uint256) {\r\n        return\r\n            uint256(\r\n                keccak256(\r\n                    abi.encodePacked(\r\n                        block.difficulty,\r\n                        block.timestamp,\r\n                        players.length\r\n                    )\r\n                )\r\n            );\r\n    }\r\n\r\n    function pickwinner() public onlyOwner {\r\n        require(players.length >= 3, \"Players are less than 2\");\r\n        uint r = random();\r\n        uint index = r % players.length;\r\n        winner = players[index];\r\n        uint balance = getBalance();\r\n        uint commision = 1 ether;\r\n        uint playerWinner = balance - commision;\r\n        winner.transfer(playerWinner);\r\n        payable(manager).transfer(commision);\r\n        players = new address payable[](0);\r\n    }\r\n\r\n    function allPlayers() public view returns (address payable[] memory) {\r\n        return players;\r\n    }\r\n}\r\n",
  "sourcePath": "E:\\Learning-Prograaam\\1-Blockchain\\MyProject\\2_Lottery\\LotteryApplicationNew\\contracts\\Lottery.sol",
  "compiler": {
    "name": "solc",
    "version": "0.8.17+commit.8df45f5f.Emscripten.clang"
  },
  "schemaVersion": "3.4.10",
  "updatedAt": "2022-11-22T17:10:43.514Z",
  "networkType": "ethereum",
  "devdoc": {
    "kind": "dev",
    "methods": {},
    "version": 1
  },
  "userdoc": {
    "kind": "user",
    "methods": {},
    "version": 1
  }
}